:100000006F60D02C130000001300000013000000EC
:100010001300000013000000130000001300000094
:100020001300000013000000130000001300000084
:08003000130000007300100032
:1000380000000000000000000E160000121600006C
:1000480000000000646A00000000000000000000DA
:10005800666A0000686A00000000000000000000F6
:100068006A6A0000000000006C6A000000000000DE
:100078006E6A0000706A0000726A0000746A00000C
:10008800766A0000786A00007A6A00007C6A0000DC
:100098007E6A0000806A0000826A0000846A0000AC
:1000A800866A0000886A00008A6A00008C6A00007C
:1000B8008E6A0000906A0000926A0000946A00004C
:1000C800966A0000986A00009A6A00009C6A00001C
:1000D8009E6A0000A06A0000A26A00000E59000093
:1000E800A66A0000B4020000AA6A0000AC6A000018
:1000F800AE6A0000B06A0000B26A0000B46A00008C
:10010800B66A0000B86A0000BA6A0000BC6A00005B
:10011800BE6A0000C06A0000C26A0000C46A00002B
:10012800C66A0000C86A0000CA6A00000000000031
:080138000000000000000000BF
:10014000397101436EC619A0397141536AC866CA34
:1001500062CC5ECE19A0397101535AD056D252D416
:100160004ED64AD826DA22DC06DE3301614082828E
:1001700041114AC026C222C406C68282B24D410144
:10018000024D924C224CB24B4101024B924A224A00
:10019000B2494101024992442244B2404101828065
:1001A0003D432A876373C3029377F700BDEFADE544
:1001B000937606FF3D8ABA960CC34CC30CC74CC756
:1001C0004107E36BD7FE11E28280B306C3408A0683
:1001D0009702000096966780A6002307B700A30643
:1001E000B7002306B700A305B7002305B700A30493
:1001F000B7002304B700A303B7002303B700A3028B
:10020000B7002302B700A301B7002301B700A30082
:10021000B7002300B700828093F5F50F9396850011
:10022000D58D93960501D58D61B7939627009702DA
:10023000000096968682E78086FA9680C1171D8F09
:100240003E96E374C3F8A5B7EFF2FFF0938481F70D
:100250002A89C82041117000CA85EF10C02F2A8456
:1002600011E51C87858B91E71304E00F228541017E
:1002700029BFC8204146CA85EF10E0302A847DF5A9
:10028000A949C8207000CA85EF10E02C05040DE1D3
:100290001C871374F40F858B81C7E31434FFE9B70F
:1002A000A947E303F4FC1C865944858BD5FF7DBF29
:1002B0002A846DBF411122C63704004085451305CD
:1002C0000440EF60D07909E53244410173002030E9
:1002D000854513050440EF60107A938781F79423D6
:1002E0000947E373D7FE94330D46D833638CC608B1
:1002F0002546E39BC6FC930660083307D702938F1D
:1003000081CD03C36700B387EF0003C7270205074A
:100310002381E702E30A03FA938581F70145094E39
:100320000D4F9302600839A005051375F50F990567
:10033000E30C65F8FC31E379FEFE9C25E396E7FFCC
:1003400083C8C500B3885802FE9883CE0800E38DA9
:100350000EFC014803C688004687814701CE8346CC
:100360002702850793F7F70F85062301D7020507B4
:10037000E397C7FE05081378F80F93882804E31B5A
:10038000D8FD5DB7130560083307A702138581CD3B
:100390003A9503480500E30908F2814510252A87AC
:1003A000814701CE83462702850793F7F70F85061D
:1003B0002301D7020507E397C7FE850593F5F50FDF
:1003C00013052504E39C05FD01B75C2121476387E4
:1003D000E702F4256384E6021D476384E702638233
:1003E000E6020D476382E7026380E60225476380E9
:1003F000E702638EE600FD571CA28280A1471CA283
:1004000082809D471CA282808D471CA28280A547C6
:100410001CA28280EFF25FD3938B81F74111014AD6
:100420001389B1F79949138C4B00938C418C138D30
:100430001B0013054006EF60107D050A137AFA0FC2
:10044000214533154501EF60107C0145EF00D033A5
:1004500081440144930A40064A85EF0050389307CF
:10046000140019ED13F4F70F054563E98902EF60F5
:1004700090794A85EF00B0368544930714007DD10A
:100480008504C2040545C180EF60F077E39654FD12
:100490009547E3F047FB59454101DDB1938541CCD8
:1004A0006285EF00B06301C99547E3F447F913058E
:1004B00050044101F1B103C54B0009448945238132
:1004C0008B00EF00707119C59547E3F447F71305EA
:1004D0006004D9B7154523818B00EF60D07203C546
:1004E0004B009306E10013060040E685EF005063E1
:1004F00019C59547E3FF47F31305700471BF1385D2
:1005000041CCE6856A8603C45C00C13503C54B0057
:10051000A285EF00707049D19547E3FC47F11305C0
:10052000B00F9DBFEFF2DFC193096008B309350337
:100530001384418C3830131645002A96342041111B
:10054000138981CD0A06AA8D2EC4814481472207D2
:1005500032C2330A39013306D70063D3C7023306E8
:10056000F4000C3209456380A50211486389050334
:100570001022B297C207C1833306D700E3C1C7FE7A
:1005800001454101E5BE502263F9C5042300BA00CC
:100590003306F4001022B297C207C1836DBFE38116
:1005A000A4FE034856008D456318B818034866003A
:1005B000854563F70503B305F4008C2113965400B9
:1005C00026960606AE974E964A96FD55C2072CA271
:1005D000C183850493F4F40FBDBF2300CA004DBF4F
:1005E00003487600E36905FD6304B8126302A812AC
:1005F0003306F4000C22939E540033869E00AE977F
:10060000924593181600CE98B38EB541C2079392C7
:100610000601C18393D20201014E014F914F9543D0
:10062000130D1002CA98B29E26C63306F4000C328F
:100630006388F50363F657020822AA97C207C183AD
:1006400063817504E393A5FF0C2668321396850039
:10065000498E2392C8003306F4000C32E39CF5FD6A
:100660000546B244E317CEF61396540026960606C6
:100670004E964A962C22E39EC5F5FD552300B604FE
:1006800089BF03485600034326004422B385CE01A8
:100690003385EE0122082698131B8301C10521052D
:1006A000860506054208135B8B41B38AC801CA95CB
:1006B000130C1E00B384E8014A95930C1F001373BA
:1006C000F300834B36001358080163400B0203C646
:1006D0006802A3836A02A3857A03050623980501AD
:1006E0002383C802137EFC0F89B783C58800034F9C
:1006F0006600A384640013861500238FE401A3869B
:100700007401231105012384C80013FFFC0F31BFBE
:10071000139754002697060722454E973EC64A97E0
:100720008146230107010146A685EF00F05F3830BE
:100730003420B24722076DBD93076008B387FD02DE
:1007400013975400269706070145BA97138781CD62
:10075000BA977D57B8A3410115B49387418C942370
:1007600015476383E600828094330547E39DE6FEE8
:10077000B4232547E399E6FEB4331947E395E6FE33
:10078000EFF29F9C130760083307E50213935500AF
:100790003308B3000608138F81CD91463A987A98B2
:1007A0008358480063F4160D014A8149014B814A80
:1007B00081431147914E9302000713090008930FDC
:1007C0000009214EC14413040002854B39A039CEE3
:1007D00062974207418363781709B386E700942242
:1007E0000507420713F6C60013FC3600418393F653
:1007F000060F6300D603E31CC6FD63859608E399E4
:1008000086FCE38703FCB386E7009422A30FD8029B
:10081000C1B76381560863FFD20263822609E39958
:10082000F6FBB386E70083CA06005DB7E392F6FBEA
:10083000E38003FAB3866A03B699C20993D9090122
:10084000E3080AF88346C803C1F6230E7803A30E13
:100850004803BDBFB5FEB386E70083C30600E113BE
:1008600093B31300B5B7A1476380F90493076008F9
:100870003305F502B307B30086073E957A9523004A
:100880000504FDB8E38603F4B386E7009422230F42
:10089000D8023DBFB386E70003CB060015BFB38681
:1008A000E70003CA06002DB7930760083305F50279
:1008B000B307B3008607AA973E9F83470F04F1F35F
:1008C00085472300FF0475BFEFF29F87130B600875
:1008D000330B6503938B81CD338C6B0183440C0008
:1008E000ADC8AE89AA8C26890144130D4B00954AE8
:1008F00031A013F9F70F31CF83440C00B3842441A6
:1009000093F4F40F939D5400A69D860DB3876D015B
:10091000DE97D6239307F9FF13F7F70FF9DAEA9D6D
:10092000DE9D19A063EA8A020504EE861386418CD7
:10093000A6854E851374F40FEF00B03965F5A685D2
:100940006685213D9307F9FF13F7F70F13F9F70FAA
:1009500045F701456FF09F82130580046FF01F82F9
:10096000EFF21F81930760083305F502138E418C67
:1009700003463E0083472E002206138781CD3E9614
:10098000894881471143254F954E3A95054863D0D4
:10099000C7083307FE000C231433AE97C207C18388
:1009A00063801607E39566FE5833E312E7FF3307CB
:1009B000FE001433E38D66FCE3DBC7FC0C23AE972B
:1009C000C207C183E395D6FF342393958601E18561
:1009D000BD8AE3DE05FC4C33834F8500402383430F
:1009E00037008342670013978500229793851F0085
:1009F00014B5A30675003AA9230F55000CA545BFF1
:100A000058236379E80023000501E3C4C7F80145D2
:100A10006FF04FF818A1A5BFEFF2EFF3938481F7C1
:100A2000C8304111353F2A8941ED138A418C8345F5
:100A30006A00C820E1E1138441CC6C24C5E56C3424
:100A4000D1E90C28D1E115441306E1009385418CCE
:100A5000EF0070387D142A891374F40F11CD39CC4E
:100A6000C8201306E1009385418CEF00D0367D1439
:100A70002A891374F40F65F583472A001147FCA0F7
:100A80006374F708F8A081490544114A39A013940A
:100A900007014180FC2063E58702C8209375F40FAD
:100AA0002146EF00D0309307140075D18509154514
:100AB00093F9F90FEF603015E37E3AFD1309E00F6B
:100AC0004A8541016FF06FEC1386418CEF00700B8B
:100AD000C82095BF1386418CEF00B00A0C28C820AF
:100AE000BDD1DDB71386418CEF00B0096C34C8204E
:100AF000A9D9CDB71386418CEF00B008138441CC3F
:100B00006C24C8208DDDF9BFBDFF5DBF9C21B3D72C
:100B1000A740858B81E71305E00F8280EFF24FE558
:100B2000EFF08FF26FF00FE7EFF2EFE29C2141114F
:100B3000B3D7A740858B99E71304E00F22854101C5
:100B40006FF0AFE4938981F72A8903C54900114604
:100B5000CA85EF00D0252A8475F12945EF60B00AD7
:100B60002D4A03C549007000CA85EF00D01EAA8433
:100B7000050421E91C871374F40FC18B9DEFE31268
:100B800044FF03C549005146CA85EF00D01F2D4AD6
:100B900003C549007000CA85EF00F01B2A84850454
:100BA00051FD1C8793F4F40FC18B91CFE39244FF66
:100BB0001C865544858BC9D351B7A947E30EF4F67B
:100BC000C9B72A84A5BFA947E388F4F6D5B7EFF2E1
:100BD0002FDA2E84AA8503C5C1F72286EF00B0174D
:100BE00011E91C3013F7270011E713F547003335DF
:100BF000A00005056FF00FDAEFF20FD5931915007D
:100C0000B384A9008604138981F7AD0441112A8AAF
:100C10002E8BB28BCA942944938541CC26857D14B2
:100C2000EF00C06B1374F40F19C57DF41305500465
:100C300041016FF0EFD4338449010604A9444A947A
:100C40004C242834FD14890593F5F50FEF00C07886
:100C500093F4F40F15ED5C24B3844901154589071D
:100C60002300FB008604EF60007A2944138B418C3B
:100C7000CA94A8349306E100130600409385418C82
:100C80007D14EF00E0691374F40F09C97DF079BF9A
:100C9000C5F81305600441016FF08FCED2995E86CE
:100CA0009385418C138541CC860983445B0029449C
:100CB000EFF0AFF1CA9903C5B900A6857D14EF0026
:100CC000A0751374F40F2DD57DF4130590048DB722
:100CD000EFF20FCA93076008B306F5021317560028
:100CE000B307C7008607138881CDB28841112E83D0
:100CF000B697C29703C6C70383C617040DCE83C732
:100D0000D703D4865C8689477C8793056008B30542
:100D1000B502469706070546B307B700C29783C6D4
:100D20000704638EC6001306F00F01456383C602F5
:100D300041016FF02FC6854754867C87F9B793062B
:100D4000E1007000C6851A85EF00607B41016FF0FD
:100D50006FC413078703348703C57702BA95700001
:100D6000C295EF00A07341016FF0CFC2EFF2CFBD8B
:100D70002A89AE84EFF00FFBAA893DE99387418C65
:100D8000EC23C9EDA6854A858136138441CC6C24B9
:100D9000BDED6C34B5E50C28B9ED130A6008330AD3
:100DA0004903138B81CD0144854BB30A4B0183C7A3
:100DB0000A0089EB35A883C70A0005041374F40FF1
:100DC0006378F40293175400A2978607D297DA97B4
:100DD000B823E31277FF2286A3800704A6854A85FD
:100DE000C53D83C70A0005041374F40FE36CF4FCDB
:100DF0004E856FF0EFB81386418C2685592371BF5D
:100E00001386418C2685B52B0C28C1D9EDB71386E6
:100E1000418C2685BD236C34BDDDDDB71386418C46
:100E200026858523A6854A854534138441CC6C24C8
:100E3000ADD1F1BF370700501C2393F7F70B1CA36C
:100E40001C3393F7B70F1CB37E3BC207C18393F7E4
:100E5000F7BFC207C1837EBB8280EFF26FB1B707D5
:100E6000002003A74707B747950893870740630407
:100E7000F702B7E7B805938707806307F702B777EC
:100E8000DC02938707C0630AF70285450565EF60BA
:100E9000600B6FF02FB00945EF50B07C85450565BC
:100EA000EF60400A6FF00FAF0545EF50907B85452E
:100EB0000565EF6020096FF0EFAD0145EF50707AE6
:100EC00085450565EF6000086FF0CFACEFF24FAAE3
:100ED000854737040050630BF50099471CA029454E
:100EE000EF60C04E230004006FF0CFAA99471CA00A
:100EF0002945EF60A04D930790F8230004001CA043
:100F0000930780045CB4938781F91CCC938781FD9F
:100F10005CCC6FF02FA8370700507C23858B8DC3E6
:100F200085477CA35C338146858B89CB854619C573
:100F300089476307F5001C33858B99E336858280EA
:100F4000894636858280370700503C331375F50794
:100F500093F70708C98F3CB3828085476301F50288
:100F6000B707005098231367070498A398331367B3
:100F7000470098B3FA3B13670740FABB8280EFF251
:100F80002F9F4D3D6FF00FA1EFF28F9E3704005061
:100F90003C30AA8493F707083CB0693D854763F766
:100FA0009702370700501C3393F7D70F1CB309453E
:100FB000EF606045370700507C23858B91C75C3319
:100FC000858B99C385477CA36FF0CF9C1C3093E73A
:100FD00027001CB0E9FC2D45EF60E042D9B7370788
:100FE00000505C33858B99E3594582801C33858B97
:100FF0009DE35C33898B93B6170014A189CF1C2322
:1010000093E707041CA31C3393E747001CB37E3B04
:1010100093E707407EBBB70700509833014513673D
:10102000170098B3FA3B13674700FABB8280EFF2D0
:10103000AF91B7070050A38DB702C16C2A8BB28A5B
:10104000238FB702935945000149B7040050894BDB
:10105000394C294A054DFD1C238C640323837401FC
:101060001304803E39A07D1442044180EF600036B5
:1010700009C4FC200545898BFDD7238C0402FC2084
:10108000898B9DC7FC3093F70704C9E7FC3093F7C1
:10109000F70F13F5F700630185096302450525473E
:1010A000638CE900B547638DF9008547638AF900D1
:1010B0001305E00F6FF0CF8C9D8B0D476383E70026
:1010C00039ED5145EF608030FC20858B95EB0509AB
:1010D0001379F90FE31249F913050002E1BF6383A5
:1010E0000A0463869A01FD1AC20A93DA0A0151457D
:1010F000EF60C02DFC20858BA5D37D191379F90FE6
:101100001305800CEF60802C9C30858B99CF238356
:10111000A40175BF014579BF1305E00261BF1365E6
:10112000050249BF1305A00271B7594561B7EFF237
:10113000AF812A8B3289130540062E84EF60002987
:101140006304090023100900B70400508969A1470E
:10115000DEBC1386097181451305000DC93D69ED9B
:10116000138A81FD9147835B6A00A38DF402238F6C
:10117000F40263830B0849C083070A00931A0B012A
:1011800093DA0A0163CC070A568B93890971130518
:101190004006EF60A023DA8763F35B01DE87DEBCE5
:1011A000DE3CC207C18389CF814714203307FA0090
:1011B000850714A3DA3CC207C1830504E397E7FE61
:1011C00083C5E4034E8641459D353DE583C7E40371
:1011D00093C74700238FF402DE3CB38BFB40C20B66
:1011E00093DB0B0163080900DE3C03570900BA9743
:1011F0002310F900E39D0BF813054006EF60001D76
:10120000370400505E3C096613060671139507010A
:1012100041813335A0003305A04013750508914581
:101220004105313511E95E3CC207C18391C71E24D7
:10123000C207C18391C35D456FE09FF4B70A0050B8
:10124000938909717D1B13054006EF60201883C543
:10125000BA034E8613050009D93B79FD83C7BA034B
:1012600093C74700A38DFA0283D78A0063F37707F9
:1012700083D78A00C207C183B38BFB40C20B93DBC9
:101280000B0163070900035709003E972310E9008B
:1012900085C31387F7FF420741830507938781F9C9
:1012A0002297942305048507A30FD4FEE31BE4FED5
:1012B00083D78A00C207C18381CB83D78A00B377E3
:1012C000FB0099E3E3910BF8B7070050239E070258
:1012D00025B7DE87814BE31809FA65BFEFE25FE9C6
:1012E00013844182A147144058401CA1938781FD7B
:1012F00094C3D8C3AA84082141111306E1002E89A2
:101300003D3501E9834679007A203C8794A063E566
:10131000E70041016FE01FE85D4541016FE09FE795
:10132000EFE27FE31384C18118405C40938481FD28
:10133000328A36863689AA8AAE8998C0DCC0C53B17
:101340000DED035709007E205D456368F70283C7F2
:10135000390003C72900A207D98F3E876361FA02CB
:101360005C4014402310E900DCC094C0835709009E
:101370004A86CE855685FEA05D3B6FE01FE1528711
:10138000C5B7EFE25FDD9387C18203AA070083A997
:101390004700138481FD4111B28413E905302320F5
:1013A00044011306E100A685AA8A232234012311F1
:1013B0002401B53B19ED9C201306E10023204401D4
:1013C00023223401A68556857C87231124017EA023
:1013D000B93B41016FE07FDBEFE29FD99387418307
:1013E0009443D843938781FD2E8494C3014681455D
:1013F000D8C3A2A32D3BAA8409ED370700503C3384
:101400001374F407154593F707085D8C20B3EF506C
:10141000907F26856FE01FD8EFE29FD51387C183A9
:1014200014435843938781FD94C3AEA3014681457D
:10143000D8C3F5396FE01FD6EFE29FD31387418100
:1014400054431843938781FDD4C3CEA301468145FD
:1014500098C3F1396FE01FD4EFE2FFCFAE848C2147
:101460003289136505090146B689D1362A8401C53A
:1014700022856FE09FD1B70700509227938581F9AD
:10148000420641822390C9004A85EF6020049C20D7
:10149000228593C747009CA06FE03FCFEFE25FCD6E
:1014A000B2872A892E843686BE85138581FDB6844F
:1014B000EF60C001B7070050C6BF0C20014613659E
:1014C0000901B53609E51C2093C747001CA06FE051
:1014D0007FCCEFE2FFC99387418483A8470003A82C
:1014E0000700938781FD23A21701CEA323AC01FD42
:1014F0009A22B2853686FAA31D396FE0BFC9EFE2A2
:101500003FC79387C18403A34700138881FD9C4391
:10151000B288232268002312B8003686C68523AC21
:10152000F1FC31316FE01FC7EFE29FC49387418523
:1015300083A8470003A80700938781FD23A2170112
:10154000220623AC01FDD18ECEA301468145B6A370
:10155000F93E6FE03FC4EFE2BFC19387C18683A825
:101560004700938681FD9C434111328823A21601D6
:10157000CEA21306E100C28523ACF1FCEFF03FBB25
:1015800041016FE03FC1EFE2BFBE9387C18503A871
:101590000700D443938781FD23AC01FDD4C3B2A3DC
:1015A000CEA301468145EFF09FB86FE0BFBEEFE2EA
:1015B0003FBC9387418703A80700D443938781FDED
:1015C00023AC01FDD4C3B2A3CEA301468145EFF005
:1015D0001FB66FE03FBCEFE21FB89387418694438C
:1015E000D843138481FD23ACD1FCAA892E89B2840F
:1015F00058C0EFF0DFB311E9834709002686CA859A
:101600009EA04E857EA0EFF09FB26FE01FB87300E2
:10161000203001A0EFE23FB4A16793878746AE97E1
:1016200058499C23834655022A84BA975CC981C6CF
:10163000FD16A302D502A167938787068A05BE958A
:101640009C418287835984011C4008489385190076
:10165000C2050450C18182972A891C400848E58050
:101660008588CE85829799E06F3010511E2C8907AE
:101670001EAC6FE09FB10E2C1C400848138715006C
:101680001AAC8297582C834634028147498F1376CF
:10169000F70F133716009315170013F7860E4D8FAB
:1016A00093567600558FA301E40250AC0147A14543
:1016B000B356E640858AB697050793F7F70FE31907
:1016C000B7FE0347340293C7F7FF858B8E075D9BF8
:1016D000D98FA301F40271BF1850442C0359A401FF
:1016E000935717019356370193F606041356670173
:1016F00093F70708D58F418A93569701D18F918A26
:101700007183D58F058BD98FA20493E72700C58FEE
:101710001307E9FF084893940701544042074183A7
:10172000C18413F6740DBA853AAC829613960401FF
:101730009305F9FF08485C404182C2052182C181BE
:10174000829705BF062C1C40084893851400C205EB
:10175000C181034934028297AA891C400848A685A2
:10176000137919008297062C2A8A8904C204C18041
:1017700006ACE31009F00359A40158400848930748
:10178000E9FFC207C183BE8513F6F40F3EAC029792
:101790005C4008489305F9FFC20513D68400C18157
:1017A0008297584893978900B3E7470119071EAC01
:1017B00058C8C1B58347340293F7F7FDA301F4027B
:1017C0004DBD835984011C40084893851900C2050A
:1017D000C1818344340282972A891C400848858845
:1017E000CE85829799E06F30F03A1E2C89071EACA7
:1017F00049B50359A4011C40084893051900C205C6
:10180000C1818297AA841C400848CA85A204829795
:10181000C98C834734021397040141879376F70FED
:1018200093D5760013D6560093F7C70F098ACD8F4C
:10183000D18F93D52600918993F7370F8606322CE6
:10184000A18ACD8FD58F93751700420741839205EA
:10185000BD9B930626002183CD8F36AC58ACA301E7
:10186000F40201BD83473402858BE39407E00359FA
:10187000A4011C40084893051900C205C181829744
:10188000AA841C400848CA85A20482973A2C5C4866
:10189000C98C090799073AAC06AC5CC8D9BB262CA1
:1018A0000359840108489387E4FF5840C207C18365
:1018B000BE851376F90F3EAC02975C4008489385CD
:1018C000F4FFC20513568900C181829793078002F5
:1018D0001EAC45B30E2C1C400848138715001AACEB
:1018E0008297582C8346340281473306A7409335AC
:1018F0001600298F1376F70F860513F7860E4D8F86
:1019000093567600558FA301E40250AC0147A145E0
:10191000B356E640858AB697050793F7F70FE319A4
:10192000B7FE0347340293C7F7FF858B8E075D9B95
:10193000D98FA301F40235BB062C1C4008489385BF
:101940001400C205C181034934028297AA891C4050
:101950000848A685137989008297062C2A8A89046B
:10196000C204C18006ACE30609D00359A401584063
:1019700008489307E9FFC207C183BE8513F6F40F39
:101980003EAC02975C4008489305F9FFC20513D6A8
:101990008400C1818297584893978900B3E7470133
:1019A00019071EAC58C8F1B17C3C0347140203462A
:1019B000040283462402A2072207D18F558F1356B3
:1019C000870093D6870070BC2300E402A300D402F2
:1019D0002301F40279B9835984011C400848938596
:1019E0001900C205C1818344340282972A891C40B0
:1019F0000848A188CE85829799C06F30901A1E2C16
:101A000089071EACBDB18347140203472402A20715
:101A1000D98F1EACB9B983473402A18BE38B07C4BD
:101A20000359A4011C40084893051900C205C1814F
:101A30008297AA841C400848CA85A20482973A2C3F
:101A40005C48C98C090799073AAC06AC5CC815B16B
:101A5000262C0359840108489387E4FF5840C207A5
:101A6000C183BE851376F90F3EAC02975C400848EF
:101A70009385F4FFC20513568900C18182979307AD
:101A800000021EACFDB60E2C1C4008481387150042
:101A90001AAC8297502C034734028147B366C500C5
:101AA0008582698E918A1377970E93351600860585
:101AB000558F4D8F93567600799B558FA301E40285
:101AC000A1450147B356E640858AB697050793F7C7
:101AD000F70FE319B7FE0347340293C7F7FF858B6F
:101AE0008E075D9BD98FA301F40250AC59B6834495
:101AF00014020359A40183472402A2040848DD8C80
:101B00009307E9FF5840C204C207C183C18413F69A
:101B1000F40FBE853EAC0297139604019305F9FFBE
:101B200008485C404182C2052182C181829791B6FA
:101B3000062C1C40084893851400C205C181032966
:101B400004028297AA891C400848A6851359B90146
:101B50008297062C137919002A8A8904C204C1804D
:101B600006ACE31809B00359A4015840084893078C
:101B7000E9FFC207C183BE8513F6F40F3EAC02979E
:101B80005C4008489305F9FFC20513D68400C18163
:101B90008297584893978900B3E7470119071EAC0D
:101BA00058C8C1BC262C1C40084893851400C205A7
:101BB000C18182972A891C400848A68522098297FC
:101BC00083441402834724028359A401A204DD8CB8
:101BD0003369A9005C400848C204C18413F6F40FBD
:101BE000CE8582975C4008481396040193851900BE
:101BF0004182C20542092182C1818297135909415C
:101C000093170901C183A183A300F40223012403D4
:101C10008DB4835984011C40084893851900C2057E
:101C20000450C18182972A891C400848ED8085882C
:101C3000CE85829799E06F30A0771E2C89071EAC65
:101C40000DBC0359A4011C40084893051900C205A6
:101C5000C1818297AA841C400848CA85A204829741
:101C6000C98C93970401362CC187139707014183D0
:101C70008906218336ACA300E4022301F402D5BA1D
:101C80001C5013974700E346079E0359A4011C40CC
:101C9000084893051900C205C1818297AA841C4097
:101CA0000848CA85A20482973A2C5C48C98C090767
:101CB00099073AAC06AC5CC86DBA262C035984016E
:101CC00008489387E4FF5840C207C183BE85137656
:101CD000F90F3EAC02975C4008489385F4FFC205BB
:101CE00013568900C1818297E1471EAC59B20E2C70
:101CF0001C400848138715001AAC82971850542CC2
:101D00009347F5FF7183058B134717003306D70000
:101D100093F7F70F3E9603473402B58FB18F93D5F3
:101D200027001376F60F91891377970F93361600D5
:101D300086064D8F558F93F7071093567600799B43
:101D4000558F93950701A301E402C185814701479F
:101D50002145B356E640858AB697050793F7F70FF6
:101D6000E319A7FE8346340293C7F7FF858B8E07DE
:101D700093F6760E13B715001207D58F5D8F50AC12
:101D8000A301E402FDB0062C1C4008489385140012
:101D9000C205C18182972A891C400848A68582977E
:101DA0008359A401062C2A8A9387E9FF89040848ED
:101DB0005840C204C207C183C180BE8513F6F40F28
:101DC0003EAC06AC02975C4008489385F9FFC2051B
:101DD00013D68400C181829793178900B3E7470126
:101DE0001EAC41B8062C1C40084893851400C2055F
:101DF000C181034934028297AA891C400848A685FC
:101E0000137909018297062C2A8A8904C204C180A9
:101E100006ACE30009860359A4015840084893071B
:101E2000E9FFC207C183BE8513F6F40F3EAC0297EB
:101E30005C4008489305F9FFC20513D68400C181B0
:101E40008297584893978900B3E7470119071EAC5A
:101E500058C805B00E2C04481C40138715000329F0
:101E600084001AAC26858297AA852685029948ACFB
:101E70006FF03F80835984011C4008489385190006
:101E8000C205C1818344340282972A891C400848D4
:101E9000C188CE85829799C06F3060521E2C890709
:101EA0001EAC6FF00FFD0359A4011C4008489305B8
:101EB0001900C205C1818297AA841C400848CA85BE
:101EC000A20482973E2CC98C06AC89073EAC6FF009
:101ED0004FFA83473402C18B638D07F80359A4017D
:101EE0001C40084893051900C205C1818297AA8445
:101EF0001C400848CA85A20482973A2C5C48C98CC9
:101F0000090799073AAC06AC5CC86FF08FF6262C2F
:101F10000359840108489387E4FF5840C207C183EE
:101F2000BE851376F90F3EAC02975C400848938556
:101F3000F4FFC20513568900C1818297C1471EACC8
:101F40006FF02FF30E2C1C400848138715001AACB5
:101F50008297542C9347F5FF93F7F70F938516005C
:101F6000BE9503473402B58FAD8F13D6270093F586
:101F7000F50F118A1377970F93B615008606518FC8
:101F8000558F93F7071093D67500799B558F13964D
:101F90000701A301E4024186814701472145B3D6E9
:101FA000E540858AB697050793F7F70FE319A7FE73
:101FB0008346340293C7F7FF858B8E0793F6760E20
:101FC000133716001207D58F5D8F4CACA301E402C6
:101FD0006FF02FEA643C0359A40183470402A20472
:101FE0000848DD8C9307E9FF5840C204C207C1834B
:101FF000C18413F6F40FBE853EAC0297139604011C
:102000009305F9FF08485C404182C2052182C181E5
:1020100082976FF00FE6062C1C4008489385140049
:10202000C205C181032904028297AA891C4008487D
:10203000A6851359C9018297062C137919002A8A9B
:102040008904C204C18006AC631509E20359A401E6
:10205000584008489307E9FFC207C183BE8513F6BD
:10206000F40F3EAC02975C4008489305F9FFC205A7
:1020700013D68400C1818297584893978900B3E7AB
:10208000470119071EAC58C86FF0AFDE0E2C04488C
:102090001C40138715001AAC26850329C4008297BB
:1020A000502CAA85268502996FF0AFDC83598401F4
:1020B0001C40084893851900C2050450C1818297CD
:1020C0002A891C400848F1808588CE85829799E04E
:1020D0006F30C0281E2C89071EAC6FF08FD90359B2
:1020E000A4011C40084893051900C205C1818297CC
:1020F000AA841C400848CA85A2048297C98C939779
:102100000401362CC1871397070141838906218377
:1021100036AC78BC2300F4026FF0AFD51C50139797
:102120003700634807D40359A4011C4008489305AD
:102130001900C205C1818297AA841C400848CA853B
:10214000A20482973A2C5C48C98C090799073AACDB
:1021500006AC5CC86FF0EFD1262C03598401084807
:102160009387E4FF5840C207C183BE851376F90FF9
:102170003EAC02975C4008489385F4FFC2051356B5
:102180008900C1818297A1471EAC6FF08FCE0E2CC3
:102190001C400848138715001AAC829710505C2C1D
:1021A000034734027182058A3E96A98F2A9693F7D7
:1021B000F70FB18FC207C18393D64700C18A137747
:1021C000B70E8983558F1376F60F918BD98F1337FE
:1021D0001600060793F7C70FD98F93567600D58F51
:1021E000A301F40201478147A145B356E640858A21
:1021F000B697050793F7F70FE319B7FE03473402C5
:1022000093C7F7FF858B8E075D9BD98FA301F402DF
:1022100050AC6FF00FC6062C1C4008489385140084
:10222000C205C18182972A891C400848A6858297E9
:102230008359A401062C2A8A9387E9FF8904084858
:102240005840C204C207C183C180BE8513F6F40F93
:102250003EAC06AC02975C4008489385F9FFC20586
:1022600013D68400C181829793178900B3E7470191
:102270001EAC6FF00FC0062C1C400848938514005C
:10228000C205C181034934028297AA891C400848CB
:10229000A685137929008297062C2A8A8904C2040C
:1022A000C18006AC630709BC0359A4015840084823
:1022B0009307E9FFC207C183BE8513F6F40F3EAC56
:1022C00002975C4008489305F9FFC20513D68400C5
:1022D000C1818297584893978900B3E7470119074E
:1022E0001EAC58C86FF0EFB8035984011C40084871
:1022F00093051900C205C1818297AA841C40084831
:10230000CA85A2048297C98C06AC6FF08FB6835938
:1023100084011C40084893851900C205C18183448B
:10232000340282972A891C4008488988CE85829782
:1023300099C06F3080031E2C89071EAC6FF06FB3FD
:102340000359A4011C40084893051900C205C18126
:102350008297AA841C400848CA85A20482973E2C12
:10236000C98C06AC89073EAC6FF0AFB0834734022E
:10237000898B638007B00359A4011C40084893056A
:102380001900C205C1818297AA841C400848CA85E9
:10239000A20482973A2C5C48C98C090799073AAC89
:1023A00006AC5CC86FF0EFAC262C035984010848DA
:1023B0009387E4FF5840C207C183BE851376F90FA7
:1023C0003EAC029708485C409385F4FFC205135663
:1023D0008900C1818297231C04006FF08FA90E2C05
:1023E0001C400848138715001AAC8297502C83476D
:1023F000340281463347C5001377F70F2A96318F91
:102400004207418393554700C18993F7B70E09836B
:102410001376F60F118BCD8FD98F13371600060761
:1024200093F7C70F93557600D98FCD8FA301F40290
:102430000147A145B357E640858BB697050793F64C
:10244000F70FE319B7FE0347340293C7F6FF858BF6
:102450008E075D9BD98FA301F40250AC6FF06FA182
:10246000443C0359A4017C2CA2040848DD8C93074A
:10247000E9FF5840C204C207C183C18413F6F40FB8
:10248000BE853EAC0297139604019305F9FF0848F8
:102490005C404182C2052182C18182976FF06F9DAD
:1024A000062C1C40084893851400C205C1810329ED
:1024B00004028297AA891C400848A68513599901ED
:1024C0008297062C137919002A8A8904C204C180D4
:1024D00006AC6310099A0359A401584008489307B1
:1024E000E9FFC207C183BE8513F6F40F3EAC029725
:1024F0005C4008489305F9FFC20513D68400C181EA
:102500008297584893978900B3E7470119071EAC93
:1025100058C86FF00F96035984011C400848930572
:102520001900C205C1818297AA841C400848CA8547
:10253000A2048297C98C06AC6FF0AF930359A40133
:102540001C40084893051900C205C1818297AA84DE
:102550001C400848CA85A2048297C98C939704013D
:10256000362CC1871397070141838906218336AC36
:1025700058BC7CAC6FF0EF8F1C5013976700634A18
:10258000078E0359A4011C40084893051900C20591
:10259000C1818297AA841C400848CA85A2048297F8
:1025A0003A2C5C48C98C090799073AAC06AC5CC860
:1025B0006FF02F8C83473402819B93E7E700A301E0
:1025C000F4026FF00F8B83471402834524021840F6
:1025D0000848A207DD8D0297582C83463402014635
:1025E000B307A74093950701C181298F139805016F
:1025F000135808411377F70F1355884033470701E5
:102600003335A0001347F7FF120593F6B60E098382
:10261000C98E118B13F5F50F558F1335150093D611
:10262000754006051377C70F858A498F558FA3011B
:10263000E40293F6F70F0147A145B3D7E640858B37
:10264000B297050713F6F70FE319B7FE03473402F5
:102650009347F6FF858B8E075D9BD98FA301F4020C
:102660006FF02F81482C8346240203473402014631
:10267000B307D54093950701C181139805011358FD
:102680000841A98EB3C60601135588403335A00012
:1026900093C6F6FF12051377B70E8982918A498F88
:1026A00013F5F50F558F1335150093D675400605B4
:1026B0001377C70F858A498F558FA301E40293F6DC
:1026C000F70F0147A145B3D7E640858BB2970507C1
:1026D00013F6F70FE319B7FE034734029347F6FFEB
:1026E000858B8E075D9BD98FA301F4026FE07FF885
:1026F000482C83461402034734020146B307D540F1
:1027000093950701C1811398050113580841A98EBB
:10271000B3C60601135588403335A00093C6F6FFB3
:1027200012051377B70E8982918A498F13F5F50F39
:10273000558F1335150093D6754006051377C70FCF
:10274000858A498F558FA301E40293F6F70F01475D
:10275000A145B3D7E640858BB297050713F6F70F6F
:10276000E319B7FE034734029347F6FF858B8E07C4
:102770005D9BD98FA301F4026FE0BFEF482C834625
:102780000402034734020146B307D540939507017D
:10279000C1811398050113580841A98EB3C60601DB
:1027A000135588403335A00093C6F6FF1205137702
:1027B000B70E8982918A498F13F5F50F558F13351E
:1027C000150093D6754006051377C70F858A498F84
:1027D000558FA301E40293F6F70F0147A145B3D744
:1027E000E640858BB297050713F6F70FE319B7FE9E
:1027F000034734029347F6FF858B8E075D9BD98F85
:10280000A301F4026FE0FFE6482C743C0347340256
:102810000146B307D54093950701C181139805017F
:1028200013580841A98EB3C60601135588403335A5
:10283000A00093C6F6FF12051377B70E8982918A1E
:10284000498F13F5F50F558F1335150093D6754045
:1028500006051377C70F858A498F558FA301E402B8
:1028600093F6F70F0147A145B3D7E640858BB297A2
:10287000050713F6F70FE319B7FE03473402934732
:10288000F6FF858B8E075D9BD98FA301F4026FE065
:102890005FDE482C742C034734020146B307D54051
:1028A00093950701C1811398050113580841A98E1A
:1028B000B3C60601135588403335A00093C6F6FF12
:1028C00012051377B70E8982918A498F13F5F50F98
:1028D000558F1335150093D6754006051377C70F2E
:1028E000858A498F558FA301E40293F6F70F0147BC
:1028F000A145B3D7E640858BB297050713F6F70FCE
:10290000E319B7FE034734029347F6FF858B8E0722
:102910005D9BD98FA301F4026FE0BFD5482C543CD6
:10292000034734020146B307D54093950701C1819F
:102930001398050113580841A98EB3C60601135513
:1029400088403335A00093C6F6FF12051377B70E03
:102950008982918A498F13F5F50F558F133515002C
:1029600093D6754006051377C70F858A498F558F13
:10297000A301E40293F6F70F0147A145B3D7E64060
:10298000858BB297050713F6F70FE319B7FE0347D8
:1029900034029347F6FF858B8E075D9BD98FA30189
:1029A000F4026FE01FCD502C034734028147933669
:1029B000160086061377870E93557600558F4D8F38
:1029C000A301E402A1450147B356E640858AB697C4
:1029D000050793F7F70FE319B7FE0347340293C7D0
:1029E000F7FF858B8E075D9BD98FA301F4026FE003
:1029F0005FC8834714028345240218400848A20791
:102A0000DD8D0297582C834634028147498F137617
:102A1000F70F133716009315170013F7860E4D8F17
:102A200093567600558FA301E40250AC0147A145AF
:102A3000B356E640858AB697050793F7F70FE31973
:102A4000B7FE0347340293C7F7FF858B8E075D9B64
:102A5000D98FA301F4026FE0DFC1542C0346240296
:102A6000034734028147558E933616008606137746
:102A7000870E93557600558F4D8FA301E40250AC1D
:102A80000147A145B356E640858AB697050793F7F7
:102A9000F70FE319B7FE0347340293C7F7FF858B9F
:102AA0008E075D9BD98FA301F4026FE09FBC542C6D
:102AB00003461402034734028147558E93361600AD
:102AC00086061377870E93557600558F4D8FA30199
:102AD000E40250AC0147A145B356E640858AB6975B
:102AE000050793F7F70FE319B7FE0347340293C7BF
:102AF000F7FF858B8E075D9BD98FA301F4026FE0F2
:102B00005FB7542C03460402034734028147558EB5
:102B10009336160086061377870E93557600558FE9
:102B20004D8FA301E40250AC0147A145B356E640E6
:102B3000858AB697050793F7F70FE319B7FE0347A2
:102B4000340293C7F7FF858B8E075D9BD98FA30156
:102B5000F4026FE01FB2542C703C034734028147EB
:102B6000558E9336160086061377870E935576009A
:102B7000558F4D8FA301E40250AC0147A145B356D8
:102B8000E640858AB697050793F7F70FE319B7FE76
:102B90000347340293C7F7FF858B8E075D9BD98F60
:102BA000A301F4026FE0FFAC542C702C03473402F5
:102BB0008147558E9336160086061377870E9355F8
:102BC0007600558F4D8FA301E40250AC0147A1451B
:102BD000B356E640858AB697050793F7F70FE319D2
:102BE000B7FE0347340293C7F7FF858B8E075D9BC3
:102BF000D98FA301F4026FE0DFA7542C503C0347A8
:102C000034028147558E9336160086061377870E59
:102C100093557600558F4D8FA301E40250AC0147C8
:102C2000A145B356E640858AB697050793F7F70F97
:102C3000E319B7FE0347340293C7F7FF858B8E076E
:102C40005D9BD98FA301F4026FE0BFA283473402DA
:102C5000230E0400819B93E7A700A301F4026FE019
:102C60005FA1834714028345240218400848A20745
:102C7000DD8D0297582C8346340281473306A740E6
:102C800093351600298F1376F70F860513F7860EF6
:102C90004D8F93567600558FA301E40250AC014747
:102CA000A145B356E640858AB697050793F7F70F17
:102CB000E319B7FE0347340293C7F7FF858B8E07EE
:102CC0005D9BD98FA301F4026FE0BF9A4C2C0346A1
:102CD0002402034734028147B306B64093B6160078
:102CE0002D8E86061377870E93557600558F4D8F60
:102CF000A301E40250AC0147A145B356E640858AE2
:102D0000B697050793F7F70FE319B7FE03473402A9
:102D100093C7F7FF858B8E075D9BD98FA301F402C4
:102D20006FE03F954C2C0346140203473402814761
:102D3000B306B64093B616002D8E86061377870E1F
:102D400093557600558F4D8FA301E40250AC014797
:102D5000A145B356E640858AB697050793F7F70F66
:102D6000E319B7FE0347340293C7F7FF858B8E073D
:102D70005D9BD98FA301F4026FE0BF8F4C2C0346FB
:102D80000402034734028147B306B64093B61600E7
:102D90002D8E86061377870E93557600558F4D8FAF
:102DA000A301E40250AC0147A145B356E640858A31
:102DB000B697050793F7F70FE319B7FE03473402F9
:102DC00093C7F7FF858B8E075D9BD98FA301F40214
:102DD0006FE03F8A4C2C703C034734028147B306B6
:102DE000B64093B616002D8E86061377870E935540
:102DF0007600558F4D8FA301E40250AC0147A145E9
:102E0000B356E640858AB697050793F7F70FE3199F
:102E1000B7FE0347340293C7F7FF858B8E075D9B90
:102E2000D98FA301F4026FE0DF844C2C702C034790
:102E300034028147B306B64093B616002D8E86063F
:102E40001377870E93557600558F4D8FA301E402BB
:102E500050AC0147A145B356E640858AB6970507B1
:102E600093F7F70FE319B7FE0347340293C7F7FF51
:102E7000858B8E075D9BD98FA301F4026FE06FFFF6
:102E80004C2C503C034734028147B306B64093B6FE
:102E900016002D8E86061377870E93557600558F74
:102EA0004D8FA301E40250AC0147A145B356E64063
:102EB000858AB697050793F7F70FE319B7FE03471F
:102EC000340293C7F7FF858B8E075D9BD98FA301D3
:102ED000F4026FE00FFA502C0347340281479355F8
:102EE000160091891377970E9336160086064D8F3C
:102EF000558F799B93567600558FA301E402A14527
:102F00000147B356E640858AB697050793F7F70F52
:102F1000E319B7FE0347340293C7F7FF858B8E078B
:102F20005D9BD98FA301F4026FE0AFF483471402D5
:102F30008345240218400848A207DD8D0297502CD3
:102F4000034734028147B366C5008582698E918A42
:102F50001377970E933516008605558F4D8F935630
:102F60007600799B558FA301E402A1450147B35632
:102F7000E640858AB697050793F7F70FE319B7FE82
:102F80000347340293C7F7FF858B8E075D9BD98F6C
:102F9000A301F40250AC6FE0CFED4C2C03462402A9
:102FA000034734028147B366B60085826D8E918AED
:102FB0001377970E933516008605558F4D8F9356D0
:102FC0007600799B558FA301E402A1450147B356D2
:102FD000E640858AB697050793F7F70FE319B7FE22
:102FE0000347340293C7F7FF858B8E075D9BD98F0C
:102FF000A301F40250AC6FE0CFE74C2C034614025F
:10300000034734028147B366B60085826D8E918A8C
:103010001377970E933516008605558F4D8F93566F
:103020007600799B558FA301E402A1450147B35671
:10303000E640858AB697050793F7F70FE319B7FEC1
:103040000347340293C7F7FF858B8E075D9BD98FAB
:10305000A301F40250AC6FE0CFE14C2C0346040214
:10306000034734028147B366B60085826D8E918A2C
:103070001377970E933516008605558F4D8F93560F
:103080007600799B558FA301E402A1450147B35611
:10309000E640858AB697050793F7F70FE319B7FE61
:1030A0000347340293C7F7FF858B8E075D9BD98F4B
:1030B000A301F40250AC6FE0CFDB4C2C703C034713
:1030C00034028147B366B60085826D8E918A13778C
:1030D000970E933516008605558F4D8F93567600C3
:1030E000799B558FA301E402A1450147B356E64001
:1030F000858AB697050793F7F70FE319B7FE0347DD
:10310000340293C7F7FF858B8E075D9BD98FA30190
:10311000F40250AC6FE0EFD54C2C702C0347340216
:103120008147B366B60085826D8E918A1377970EBC
:10313000933516008605558F4D8F93567600799BF3
:10314000558FA301E402A1450147B356E640858AA5
:10315000B697050793F7F70FE319B7FE0347340255
:1031600093C7F7FF858B8E075D9BD98FA301F40270
:1031700050AC6FE00FD04C2C503C034734028147D9
:10318000B366B60085826D8E918A1377970E93355C
:1031900016008605558F4D8F93567600799B558F77
:1031A000A301E402A1450147B356E640858AB697DC
:1031B000050793F7F70FE319B7FE0347340293C7E8
:1031C000F7FF858B8E075D9BD98FA301F40250AC6E
:1031D0006FE02FCA10500347340281467182058A7E
:1031E000134616009307F60F93C7F70F7D16137655
:1031F000F60F13D5270011891377970F9335160013
:103200008605498F4D8F799B9355760093F707106C
:103210004D8F93950701A301E402C1850147214524
:10322000B357E640858BB697050793F6F70FE3197A
:10323000A7FE0347340293C7F6FF858B9376770E7C
:103240008E0713B715001207D58F5D8F50ACA30101
:10325000E4026FE00FC28347140283452402184042
:103260000848A207DD8D02971850542C9347F5FFAC
:103270007183058B134717003306D70093F7F70FB9
:103280003E9603473402B58FB18F93D5270013764E
:10329000F60F91891377970F9336160086064D8F98
:1032A000558F93F7071093567600799B558F93951A
:1032B0000701A301E402C185814701472145B356B7
:1032C000E640858AB697050793F7F70FE319A7FE3F
:1032D0008346340293C7F7FF858B8E0793F6760EED
:1032E00013B715001207D58F5D8F50ACA301E40210
:1032F0006FE02FB81450034624024C2CF182134681
:10330000F6FF858A1376F60F93C61600B307D6002C
:103310003305B600034734022D8EAE97B18FAA96BF
:1033200013F6F60F93D5270091891377970F9336ED
:10333000160086064D8F558F93F70710935676002B
:10334000799B558F93950701A301E402C1858147BD
:1033500001472145B356E640858AB697050793F79E
:10336000F70FE319A7FE8346340293C7F7FF858B57
:103370008E0793F6760E13B715001207D58F5D8F63
:1033800050ACA301E4026FE0CFAE14500346140228
:103390004C2CF1821346F6FF858A1376F60F93C6FE
:1033A0001600B307D6003305B600034734022D8E4E
:1033B000AE97B18FAA9613F6F60F93D52700918991
:1033C0001377970F9336160086064D8F558F93F718
:1033D000071093567600799B558F93950701A301AB
:1033E000E402C185814701472145B356E640858AFD
:1033F000B697050793F7F70FE319A7FE8346340244
:1034000093C7F7FF858B8E0793F6760E13B71500DB
:103410001207D58F5D8F50ACA301E4026FE06FA55A
:103420001450034604024C2CF1821346F6FF858AA1
:103430001376F60F93C61600B307D6003305B60011
:10344000034734022D8EAE97B18FAA9613F6F60F6E
:1034500093D5270091891377970F93361600860628
:103460004D8F558F93F7071093567600799B558FA4
:1034700093950701A301E402C185814701472145D6
:10348000B356E640858AB697050793F7F70FE31919
:10349000A7FE8346340293C7F7FF858B8E0793F60A
:1034A000760E13B715001207D58F5D8F50ACA301B0
:1034B000E4026FE00F9C1450703C4C2CF1821346D8
:1034C000F6FF858A1376F60F93C61600B307D6006B
:1034D0003305B600034734022D8EAE97B18FAA96FE
:1034E00013F6F60F93D5270091891377970F93362C
:1034F000160086064D8F558F93F70710935676006A
:10350000799B558F93950701A301E402C1858147FB
:1035100001472145B356E640858AB697050793F7DC
:10352000F70FE319A7FE8346340293C7F7FF858B95
:103530008E0793F6760E13B715001207D58F5D8FA1
:1035400050ACA301E4026FE0CF921450702C4C2CCD
:10355000F1821346F6FF858A1376F60F93C616009E
:10356000B307D6003305B600034734022D8EAE975D
:10357000B18FAA9613F6F60F93D52700918913778A
:10358000970F9336160086064D8F558F93F70710C9
:1035900093567600799B558F93950701A301E4021A
:1035A000C185814701472145B356E640858AB697D4
:1035B000050793F7F70FE319A7FE8346340293C775
:1035C000F7FF858B8E0793F6760E13B7150012075B
:1035D000D58F5D8F50ACA301E4026FE08F8914504A
:1035E000503C4C2CF1821346F6FF858A1376F60F79
:1035F00093C61600B307D6003305B600034734025E
:103600002D8EAE97B18FAA9613F6F60F93D527009D
:1036100091891377970F9336160086064D8F558F35
:1036200093F7071093567600799B558F9395070172
:10363000A301E402C185814701472145B356E64015
:10364000858AB697050793F7F70FE319A7FE834618
:10365000340293C7F7FF858B8E0793F6760E13B768
:1036600015001207D58F5D8F50ACA301E4026FE007
:103670004F8083473402230E0400819B93E7E700C9
:10368000A301F4026FD0FFFE834714028345240296
:1036900018400848A207DD8D0297542C9347F5FF88
:1036A00093F7F70F93851600BE9503473402B58F45
:1036B000AD8F13D6270093F5F50F118A1377970F67
:1036C00093B615008606518F558F93F7071093D642
:1036D0007500799B558F13960701A301E40241867B
:1036E000814701472145B3D6E540858AB69705074E
:1036F00093F7F70FE319A7FE8346340293C7F7FF4A
:10370000858B8E0793F6760E133716001207D58F2A
:103710005D8F4CACA301E4026FD0BFF58347240258
:10372000542C0347340293C7F7FF93F7F70F9385A1
:103730001600BE95B58FAD8F13D6270093F5F50F04
:10374000118A1377970F93B615008606518F558F00
:1037500093F7071093D67500799B558F1396070141
:10376000A301E4024186814701472145B3D6E540E4
:10377000858AB697050793F7F70FE319A7FE8346E7
:10378000340293C7F7FF858B8E0793F6760E1337B7
:1037900016001207D58F5D8F4CACA301E4026FD0E9
:1037A0005FED83471402542C0347340293C7F7FF9D
:1037B00093F7F70F93851600BE95B58FAD8F13D68F
:1037C000270093F5F50F118A1377970F93B615001D
:1037D0008606518F558F93F7071093D67500799B06
:1037E000558F13960701A301E402418681470147E3
:1037F0002145B3D6E540858AB697050793F7F70FBD
:10380000E319A7FE8346340293C7F7FF858B8E0723
:1038100093F6760E133716001207D58F5D8F4CACDA
:10382000A301E4026FD0FFE483470402542C034752
:10383000340293C7F7FF93F7F70F93851600BE95F1
:10384000B58FAD8F13D6270093F5F50F118A137737
:10385000970F93B615008606518F558F93F7071073
:1038600093D67500799B558F13960701A301E40247
:103870004186814701472145B3D6E540858AB69701
:10388000050793F7F70FE319A7FE8346340293C7A2
:10389000F7FF858B8E0793F6760E13371600120707
:1038A000D58F5D8F4CACA301E4026FD09FDC7C3CD4
:1038B000542C0347340293C7F7FF93F7F70F938510
:1038C0001600BE95B58FAD8F13D6270093F5F50F73
:1038D000118A1377970F93B615008606518F558F6F
:1038E00093F7071093D67500799B558F13960701B0
:1038F000A301E4024186814701472145B3D6E54053
:10390000858AB697050793F7F70FE319A7FE834655
:10391000340293C7F7FF858B8E0793F6760E133725
:1039200016001207D58F5D8F4CACA301E4026FD057
:103930005FD47C2C542C0347340293C7F7FF93F7D2
:10394000F70F93851600BE95B58FAD8F13D6270060
:1039500093F5F50F118A1377970F93B61500860626
:10396000518F558F93F7071093D67500799B558F1C
:1039700013960701A301E4024186814701472145CF
:10398000B3D6E540858AB697050793F7F70FE31995
:10399000A7FE8346340293C7F7FF858B8E0793F605
:1039A000760E133716001207D58F5D8F4CACA3012E
:1039B000E4026FD01FCC5C3C542C0347340293C705
:1039C000F7FF93F7F70F93851600BE95B58FAD8F70
:1039D00013D6270093F5F50F118A1377970F93B637
:1039E00015008606518F558F93F7071093D67500F3
:1039F000799B558F13960701A301E4024186814705
:103A000001472145B3D6E540858AB697050793F768
:103A1000F70FE319A7FE8346340293C7F7FF858BA0
:103A20008E0793F6760E133716001207D58F5D8F2B
:103A30004CACA301E4026FD0DFC31050582C834775
:103A4000340271820607058A3A9693564600C18A67
:103A50001357260093F7B70E1376F60F118BD58FF9
:103A6000D98F13371600060793F7C70FD98F9356D0
:103A70007600D58FA301F40201478147A145B356D3
:103A8000E640858AB697050793F7F70FE319B7FE67
:103A90000347340293C7F7FF858B8E075D9BD98F51
:103AA000A301F40250AC6FD0DFBC834714028345FE
:103AB000240218400848A207DD8D029710505C2CA4
:103AC000034734027182058A3E96A98F2A9693F79E
:103AD000F70FB18FC207C18393D64700C18A13770E
:103AE000B70E8983558F1376F60F918BD98F1337C5
:103AF0001600060793F7C70FD98F93567600D58F18
:103B0000A301F40201478147A145B356E640858AE7
:103B1000B697050793F7F70FE319B7FE034734028B
:103B200093C7F7FF858B8E075D9BD98FA301F402A6
:103B300050AC6FD01FB41050542C03472402718234
:103B4000058AB307D7003E96358F83473402318FFD
:103B500093564700C18A93F7B70E09831376F60F81
:103B6000118BD58FD98F13371600060793F7C70F20
:103B7000D98F93567600D58FA301F4020147814770
:103B8000A145B356E640858AB697050793F7F70F28
:103B9000E319B7FE0347340293C7F7FF858B8E07FF
:103BA0005D9BD98FA301F40250AC6FD09FAC105035
:103BB000542C034714027182058AB307D7003E963E
:103BC000358F83473402318F93564700C18A93F76C
:103BD000B70E09831376F60F118BD58FD98F133754
:103BE0001600060793F7C70FD98F93567600D58F27
:103BF000A301F40201478147A145B356E640858AF7
:103C0000B697050793F7F70FE319B7FE034734029A
:103C100093C7F7FF858B8E075D9BD98FA301F402B5
:103C200050AC6FD01FA51050542C03470402718272
:103C3000058AB307D7003E96358F83473402318F0C
:103C400093564700C18A93F7B70E09831376F60F90
:103C5000118BD58FD98F13371600060793F7C70F2F
:103C6000D98F93567600D58FA301F402014781477F
:103C7000A145B356E640858AB697050793F7F70F37
:103C8000E319B7FE0347340293C7F7FF858B8E070E
:103C90005D9BD98FA301F40250AC6FD09F9D105053
:103CA000542C783C7182058AB307D7003E96358F35
:103CB00083473402318F93564700C18A93F7B70E7A
:103CC00009831376F60F118BD58FD98F1337160012
:103CD000060793F7C70FD98F93567600D58FA301A8
:103CE000F40201478147A145B356E640858AB6975D
:103CF000050793F7F70FE319B7FE0347340293C79D
:103D0000F7FF858B8E075D9BD98FA301F40250AC22
:103D10006FD03F961050542C782C7182058AB307CF
:103D2000D7003E96358F83473402318F9356470034
:103D3000C18A93F7B70E09831376F60F118BD58FCF
:103D4000D98F13371600060793F7C70FD98F9356ED
:103D50007600D58FA301F40201478147A145B356F0
:103D6000E640858AB697050793F7F70FE319B7FE84
:103D70000347340293C7F7FF858B8E075D9BD98F6E
:103D8000A301F40250AC6FD0DF8E1050542C583C7D
:103D90007182058AB307D7003E96358F8347340278
:103DA000318F93564700C18A93F7B70E0983137674
:103DB000F60F118BD58FD98F13371600060793F79F
:103DC000C70FD98F93567600D58FA301F402014710
:103DD0008147A145B356E640858AB697050793F714
:103DE000F70FE319B7FE0347340293C7F7FF858B3C
:103DF0008E075D9BD98FA301F40250AC6FD07F87F3
:103E0000502C0347340281470606935586009205DD
:103E1000935626001377B70E1376F60F918A4D8FBF
:103E2000558F9336160086061377C70F9355760085
:103E3000558F4D8FA301E402A1450147B356E640DB
:103E4000858AB697050793F7F70FE319B7FE03477F
:103E5000340293C7F7FF858B8E075D9BD98FA30133
:103E6000F40250AC6FD0FF808347140283452402D4
:103E700018400848A207DD8D0297502C8347340272
:103E800081463347C5001377F70F2A96318F4207D3
:103E9000418393554700C18993F7B70E0983137681
:103EA000F60F118BCD8FD98F13371600060793F7B6
:103EB000C70F93557600D98FCD8FA301F402014728
:103EC000A145B357E640858BB697050793F6F70FE4
:103ED000E319B7FE0347340293C7F6FF858B8E07BD
:103EE0005D9BD98FA301F40250AC6FD08FF84C2C9E
:103EF000834624020347340281473386B600AD8EE1
:103F0000B18E93D5860092051377B70E898213760A
:103F1000F60F918A4D8F558F9336160086061377CC
:103F2000C70F93557600558F4D8FA301E402A1452D
:103F30000147B356E640858AB697050793F7F70F12
:103F4000E319B7FE0347340293C7F7FF858B8E074B
:103F50005D9BD98FA301F40250AC6FD08FF14C2C34
:103F6000834614020347340281473386B600AD8E80
:103F7000B18E93D5860092051377B70E898213769A
:103F8000F60F918A4D8F558F93361600860613775C
:103F9000C70F93557600558F4D8FA301E402A145BD
:103FA0000147B356E640858AB697050793F7F70FA2
:103FB000E319B7FE0347340293C7F7FF858B8E07DB
:103FC0005D9BD98FA301F40250AC6FD08FEA4C2CCB
:103FD000834604020347340281473386B600AD8E20
:103FE000B18E93D5860092051377B70E898213762A
:103FF000F60F918A4D8F558F9336160086061377EC
:10400000C70F93557600558F4D8FA301E402A1454C
:104010000147B356E640858AB697050793F7F70F31
:10402000E319B7FE0347340293C7F7FF858B8E076A
:104030005D9BD98FA301F40250AC6FD08FE34C2C61
:10404000743C0347340281473386B600AD8EB18E8F
:1040500093D5860092051377B70E89821376F60FF3
:10406000918A4D8F558F9336160086061377C70FAA
:1040700093557600558F4D8FA301E402A14501476A
:10408000B356E640858AB697050793F7F70FE3190D
:10409000B7FE0347340293C7F7FF858B8E075D9BFE
:1040A000D98FA301F40250AC6FD0AFDC4C2C742C30
:1040B0000347340281473386B600AD8EB18E93D567
:1040C000860092051377B70E89821376F60F918AD0
:1040D0004D8F558F9336160086061377C70F93556D
:1040E0007600558F4D8FA301E402A1450147B356D9
:1040F000E640858AB697050793F7F70FE319B7FEF1
:104100000347340293C7F7FF858B8E075D9BD98FDA
:10411000A301F40250AC6FD0CFD54C2C543C0347D4
:10412000340281473386B600AD8EB18E93D58600BA
:1041300092051377B70E89821376F60F918A4D8F09
:10414000558F9336160086061377C70F9355760062
:10415000558F4D8FA301E402A1450147B356E640B8
:10416000858AB697050793F7F70FE319B7FE03475C
:10417000340293C7F7FF858B8E075D9BD98FA30110
:10418000F40250AC6FD0EFCE0E2C1C4008481387C1
:1041900015001AAC8297582C834634020146B307A7
:1041A000A74093950701C181298F139805011358E2
:1041B00008411377F70F135588403347070133350C
:1041C000A0001347F7FF120593F6B60E0983C98EB8
:1041D000118B13F5F50F558F1335150093D67540D8
:1041E00006051377C70F858A498F558FA301E4020F
:1041F00093F6F70F0147A145B3D7E640858BB297F9
:10420000050713F6F70FE319B7FE03473402934788
:10421000F6FF858B8E075D9BD98FA301F4026FD0CB
:104220004FC5834714028345240218400848A2075B
:10423000DD8D029748AC6FD0CFC3834724025CACBE
:104240006FD02FC3834714025CAC6FD08FC28347FB
:1042500004025CAC6FD0EFC17C3C5CAC6FD06FC132
:104260007C2C5CAC6FD0EFC05C3C5CAC6FD06FC0A2
:1042700083471402834524025840502C0848A20763
:10428000DD8D02976FD0EFBE8347340293E70704BA
:10429000A301F4026FD0EFBD83451402034624024C
:1042A0005C400848A205D18D82976FD08FBC034631
:1042B0001402034724025C40084893158600D98DF8
:1042C00082976FD00FBB8347140283452402584066
:1042D000034604020848A207DD8D02976FD06FB92C
:1042E00083471402834524025840703C0848A207C3
:1042F000DD8D02976FD0EFB7834714028345240208
:104300005840702C0848A207DD8D02976FD06FB619
:1043100083471402834524025840503C0848A207B2
:10432000DD8D02976FD0EFB45C2C2301F4026FD0C7
:104330004FB4834714028345240218400848A2075B
:10434000DD8D02972301A4026FD0AFB2262C035952
:10435000840108489387E4FF5840C207C183BE85A3
:104360001376F90F3EAC02975C4008489385F4FF42
:10437000C20513568900C1818297930700031EACC2
:104380006FD02FAF834714022301F4026FD06FAEBA
:10439000834704022301F4026FD0AFAD7C3C2301BC
:1043A000F4026FD00FAD7C2C2301F4026FD06FAC00
:1043B0005C3C2301F4026FD0CFAB5C2CA300F40271
:1043C0006FD02FAB8347140283452402184008485E
:1043D000A207DD8D0297A300A4026FD08FA98347A7
:1043E0002402A300F4026FD0CFA883473402858B48
:1043F00099E36FD00FA80359A4011C400848930506
:104400001900C205C1818297AA841C400848CA8548
:10441000A20482973A2C5C48C98C090799073AACE8
:1044200006AC5CC86FD0EFA483470402A300F4027B
:104430006FD02FA47C3CA300F4026FD08FA37C2C00
:10444000A300F4026FD0EFA25C3CA300F4026FD093
:104450004FA25C2C2300F4026FD0AFA1834714025B
:104460008345240218400848A207DD8D02972300E7
:10447000A4026FD00FA0834724022300F4026FD060
:104480004F9F834714022300F4026FD08F9E83470F
:10449000140203472402A207D98F3EAC6FD06F9D50
:1044A0007C3C2300F4026FD0CF9C7C2C2300F402D0
:1044B0006FD02F9C5C3C2300F4026FD08F9B5C2C50
:1044C0007CBC6FD00F9B83471402834524021840A5
:1044D0000848A207DD8D029768BC6FD08F9983478B
:1044E00024027CBC6FD0EF98834714027CBC6FD051
:1044F0004F98834704027CBC6FD0AF9783598401E7
:104500001C40084893851900C205C18183443402C8
:1045100082972A891C4008488588CE858297E39433
:1045200004661E2C89071EAC6FD0AF947C2C7CBC1B
:104530006FD02F9483471402834524021840084803
:10454000A207DD8D029768AC6FD0AF92834724023B
:104550007CAC6FD00F92834714027CAC6FD06F910C
:10456000834704027CAC6FD0CF907C3C7CAC6FD096
:104570004F90834734020547A302E40293E7070202
:10458000A301F4026FD0EF8E5C3C7CAC6FD06F8ED9
:104590005C2C5CBC6FD0EF8D5C3C7CBC6FD06F8DB5
:1045A0005C2C7CAC6FD0EF8C8347140283452402D3
:1045B00018400848A207DD8D029748BC6FD06F8B6A
:1045C000834724025CBC6FD0CF8A834714025CBC53
:1045D0006FD02F8A834704025CBC6FD08F897C3CEC
:1045E0005CBC6FD00F897C2C5CBC6FD08F88062C94
:1045F0001C40084893851400C205C1810349340258
:104600008297AA891C400848A685137919008297C9
:10461000062C2A8A8904C204C18006AC63140900EE
:104620006FD02F850359A401584008489307E9FF2C
:10463000C207C183BE8513F6F40F3EAC02975C40FF
:1046400008489305F9FFC20513D68400C1818297FB
:10465000584893978900B3E7470119071EAC58C81B
:104660006FD02F811C5003473402F183858B93C791
:10467000170092073D9BD98FA301F4026FC07FFF03
:104680000E2C1C400848138715001AAC829748ACC2
:104690006FC03FFE502C0347340281477D161376CE
:1046A000F60F9376F600C516B336D0008A06137758
:1046B000970F933516008605558F4D8F93567600CC
:1046C000799B558FA301E402A1450147B356E6400B
:1046D000858AB697050793F7F70FE319B7FE0347E7
:1046E000340293C7F7FF858B8E075D9BD98FA3019B
:1046F000F40250AC6FC0FFF7502C034734028147DF
:1047000005061376F60F9376F60093B616008A0622
:104710001377970F933516008605558F4D8F935657
:104720007600799B558FA301E402A1450147B3565A
:10473000E640858AB697050793F7F70FE319B7FEAA
:104740000347340293C7F7FF858B8E075D9BD98F94
:10475000A301F40250AC6FC0DFF13E2CFD173EAC5C
:104760006FC03FF1035984011C40084893051900AC
:10477000C205C1818297AA841C400848CA858297D5
:104780001E2C93958400C98D184008488907C205DE
:104790001EACC181029748AC6FC0BFED83471402C5
:1047A00003462402362CA20703473402D18FB69762
:1047B00093D60701C207C18392063D9B558F93D6BE
:1047C0008700A301E402A300D4022301F4026FC016
:1047D0005FEA8347340293E70701A301F4026FC045
:1047E0005FE90E2C83441402034724021C4008484E
:1047F0009386150016ACA204D98C82972A865C4059
:104800000848A68582976FC0DFE6834414020347F9
:1048100024021C40A2040848D98CA685829713065E
:10482000F5FF1376F60F834734021377F60045172A
:104830003337E0000A0793F7970F93361600D98FA6
:104840008606D58F13577600F99BD98FA301F40202
:1048500001478147A145B356E640858AB6970507CB
:1048600093F7F70FE319B7FE0347340293C7F7FF37
:10487000858B5D9B8E0754400848D98FA301F402B5
:10488000A68582966FC0FFDE83441402034724028C
:104890001C40A2040848D98CA685829713061500EF
:1048A0001376F60F834734021377F6001337170099
:1048B0000A0793F7970F93361600D98F8606D58F80
:1048C00013577600F99BD98FA301F4020147814762
:1048D000A145B356E640858AB697050793F7F70FCB
:1048E000E319B7FE0347340293C7F7FF858B5D9B3F
:1048F0008E0754400848D98FA301F402A6858296FA
:104900006FC03FD73E2C85073EAC6FC09FD6035982
:1049100084011C40084893051900C205C181829793
:10492000AA841C400848CA8582971E2C939584004F
:10493000C98D5840502C08488907C2051EACC1815A
:1049400002976FC01FD3035984011C400848930588
:104950001900C205C1818297AA841C400848CA85F3
:10496000A20482971E2CC98C26AC89071EAC6FC08E
:104970005FD05C2C93C7F7FF5CAC6FC09FCF0E2C51
:104980001C400848138715001AAC82972301A40223
:104990006FC03FCE034624020347340281477D1691
:1049A0001376F60F9376F600C516B336D0008A0656
:1049B0001377970F933516008605558F4D8F9356B5
:1049C0007600799B558FA301E402A1450147B356B8
:1049D000E640858AB697050793F7F70FE319B7FE08
:1049E0000347340293C7F7FF858B8E075D9BD98FF2
:1049F000A301F4022301C4026FC0BFC7034624020F
:104A000003473402814705061376F60F9376F600C6
:104A100093B616008A061377970F9335160086050E
:104A2000558F4D8F93567600799B558FA301E402E5
:104A3000A1450147B356E640858AB697050793F727
:104A4000F70FE319B7FE0347340293C7F7FF858BCF
:104A50008E075D9BD98FA301F4022301C4026FC0AE
:104A60005FC18347140203472402A207D98FFD17B1
:104A7000C207C18313D78700A300E4022301F40215
:104A80006FC03FBF035984011C40084893051900BB
:104A9000C205C1818297AA841C400848CA85A20425
:104AA0008297C98C1E2C13990401135909011840CF
:104AB0000848930519008907C205C1811EAC0297F9
:104AC000AA841C400848CA85A2048297C98C93977F
:104AD0000401C1871397070141832183A300E402E6
:104AE0002301F4026FC0FFB88347140283462402F7
:104AF00003473402A207D58F860793D60701C20762
:104B0000C18392063D9B558F93D68700A301E40293
:104B1000A300D4022301F4026FC0BFB50C500347B9
:104B200034025C2CF18113764700858913F5F70078
:104B3000994611E6254681466373A6009946418B46
:104B400011EB13D7470025466366E6006319C700DB
:104B50006377A7009386060693F6F60F854533859F
:104B6000D70003473402B58FA98F89831375F50FDA
:104B70001377970F918B93361500D98F8606D58FB3
:104B800013577500F99BD98FA301F40201478147A0
:104B90002146B356E540858AB697050793F7F70F88
:104BA000E319C7FE0347340293C7F7FF858B8E07CF
:104BB0001377770E9205D98FCD8F48ACA301F402FD
:104BC0006FC03FAB034614020347340281477D1692
:104BD0001376F60F9376F600C516B336D0008A0624
:104BE0001377970F933516008605558F4D8F935683
:104BF0007600799B558FA301E402A1450147B35686
:104C0000E640858AB697050793F7F70FE319B7FED5
:104C10000347340293C7F7FF858B8E075D9BD98FBF
:104C2000A301F402A300C4026FC0BFA40E2C1C4059
:104C30000848138715001AAC8297A300A4026FC01E
:104C40005FA3034614020347340281470506137627
:104C5000F60F9376F60093B616008A061377970F31
:104C6000933516008605558F4D8F93567600799BA8
:104C7000558FA301E402A1450147B356E640858A5A
:104C8000B697050793F7F70FE319B7FE034734020A
:104C900093C7F7FF858B8E075D9BD98FA301F40225
:104CA000A300C4026FC0FF9C834714020347240281
:104CB000A207D98F8507C207C18313D78700A30036
:104CC000E4022301F4026FC0DF9A035984011C40FF
:104CD000084893051900C205C18182971C40AA8427
:104CE0000848CA85A2048297034914020347240294
:104CF0001E2C2209C98C3369E90008485840C204B7
:104D00004209C1801359094189071376F90FA68515
:104D10001EAC0297131609019385140008485C40E5
:104D20004182C2052182C18182976FC09F9403593D
:104D300084011C40084893051900C205C18182976F
:104D4000AA841C400848CA85A2048297C98C9397FC
:104D50000401162CC187139707014183890621831B
:104D600016ACA300E4022301F4026FC09F905C2CF8
:104D700014500347340213F61700D58212063D9BE8
:104D8000858393F60608518FD58FA301E4025CACAE
:104D90006FC03F8E0E2C1C400848138715001AACBC
:104DA00082972300A4026FC0DF8C034604020347EE
:104DB000340281477D161376F60F9376F600C516FA
:104DC000B336D0008A061377970F93351600860501
:104DD000558F4D8F93567600799B558FA301E40232
:104DE000A1450147B356E640858AB697050793F774
:104DF000F70FE319B7FE0347340293C7F7FF858B1C
:104E00008E075D9BD98FA301F4022300C4026FC0FB
:104E10005F86034604020347340281470506137682
:104E2000F60F9376F60093B616008A061377970F5F
:104E3000933516008605558F4D8F93567600799BD6
:104E4000558FA301E402A1450147B356E640858A88
:104E5000B697050793F7F70FE319B7FE0347340238
:104E600093C7F7FF858B8E075D9BD98FA301F40253
:104E70002300C4026FC0EFFF7C3C03470402A2077B
:104E8000D98FFD17C207C18313D7870078BC2300D1
:104E9000F4026FC00FFE7C3C8345040218400848B2
:104EA000A207DD8D029748AC6FC0AFFC83471402A8
:104EB000743C0346240283450402A206A20703476A
:104EC0003402CD8ED18FB69793D60701C207C18326
:104ED00092063D9B558F93D68700A301E402A30061
:104EE000D4022301F4026FC0CFF85C2C14500347A6
:104EF000340213D67700F182858A12063D9B86071D
:104F0000518FD58FA301E4025CAC6FC08FF60E2CDD
:104F10001C400848138715001AAC829768BC6FC004
:104F20004FF5703C0347340281477D161376F60F28
:104F30009376F600C516B336D0008A061377970F1E
:104F4000933516008605558F4D8F93567600799BC5
:104F5000558FA301E402A1450147B356E640858A77
:104F6000B697050793F7F70FE319B7FE0347340227
:104F700093C7F7FF858B8E075D9BD98FA301F40242
:104F800070BC6FC00FEF703C0347340281470506C9
:104F90001376F60F9376F60093B616008A0613770B
:104FA000970F933516008605558F4D8F93567600D3
:104FB000799B558FA301E402A1450147B356E64012
:104FC000858AB697050793F7F70FE319B7FE0347EE
:104FD000340293C7F7FF858B8E075D9BD98FA301A2
:104FE000F40270BC6FC0EFE87C3C03470402A207E8
:104FF000D98F8507C207C18313D7870078BC2300E8
:10500000F4026FC00FE77C3C834504025840502CEB
:105010000848A207DD8D02976FC0AFE503598401F0
:105020001C40084893051900C205C1818297AA84D3
:105030001C400848CA85A2048297C98C9397040132
:10504000162CC1871397070141838906218316AC6B
:1050500078BC2300F4026FC0CFE15C2C034734021C
:1050600093F61700139646003D9B85839E06518F4D
:10507000D58FA301E4025CAC6FC0AFDF0E2C1C40E7
:105080000848138715001AAC829768AC6FC06FDEB2
:10509000702C0347340281477D161376F60F937602
:1050A000F600C516B336D0008A061377970F9335EE
:1050B00016008605558F4D8F93567600799B558F38
:1050C000A301E402A1450147B356E640858AB6979D
:1050D000050793F7F70FE319B7FE0347340293C7A9
:1050E000F7FF858B8E075D9BD98FA301F40270AC0F
:1050F0006FC02FD8702C0347340281470506137602
:10510000F60F9376F60093B616008A061377970F7C
:10511000933516008605558F4D8F93567600799BF3
:10512000558FA301E402A1450147B356E640858AA5
:10513000B697050793F7F70FE319B7FE0347340255
:1051400093C7F7FF858B8E075D9BD98FA301F40270
:1051500070AC6FC00FD25C3C782CA207D98FFD17C2
:10516000C207C18313D7870058BC7CAC6FC06FD017
:105170005C3C6C2C18400848A207DD8D029748ACB7
:105180006FC02FCF83471402543C034624026C2C7B
:10519000A206A20703473402CD8ED18FB69793D6CD
:1051A0000701C207C18392063D9B558F93D68700A6
:1051B000A301E402A300D4022301F4026FC06FCB69
:1051C000262C0359840108489387E4FF5840C207FE
:1051D000C183BE851376F90F3EAC02975C40084848
:1051E0009385F4FFC20513568900C1818297930706
:1051F00080031EAC6FC0EFC75C2C0347340293D60C
:105200007700139646003D9B8607518FD58FA301EB
:10521000E4025CAC6FC0EFC50E2C1C40084813873D
:1052200015001AAC829748BC6FC0AFC4503C03470E
:10523000340281477D161376F60F9376F600C51675
:10524000B336D0008A061377970F9335160086057C
:10525000558F4D8F93567600799B558FA301E402AD
:10526000A1450147B356E640858AB697050793F7EF
:10527000F70FE319B7FE0347340293C7F7FF858B97
:105280008E075D9BD98FA301F40250BC6FC06FBE27
:10529000503C03473402814705061376F60F937698
:1052A000F60093B616008A061377970F933516000B
:1052B0008605558F4D8F93567600799B558FA301A8
:1052C000E402A1450147B356E640858AB697050733
:1052D00093F7F70FE319B7FE0347340293C7F7FFBD
:1052E000858B8E075D9BD98FA301F40250BC6FC0E4
:1052F0004FB85C3C782CA207D98F8507C207C183C1
:1053000013D7870058BC7CAC6FC0AFB65C3C6C2C2C
:105310005840502C0848A207DD8D02976FC06FB52A
:10532000035984011C40084893051900C205C18136
:105330008297AA841C400848CA85A2048297C98C17
:1053400093970401162CC18713970701418389069F
:10535000218316AC58BC7CAC6FC0AFB12209336955
:10536000A900231C24016FC0CFB022093369A90012
:10537000231C24016FC0EFAF22093369A900231C4D
:1053800024016FC00FAF22093369A900231C240137
:105390006FC02FAE22093369A900231C24016FC0FE
:1053A0004FAD22093369A900231C24016FC06FACE3
:1053B00022093369A900231C24016FC08FAB220985
:1053C0003369A900231C24016FC0AFAA2320050064
:1053D0002322050023240500232605002328050099
:1053E000232A0500232C0500232E05002320050277
:1053F000231205028280EFA2BFD71851B70700A081
:105400002A84B3F6E7006383F6029317170063CD8F
:1054100007000E2C1C400848138715001AAC829711
:10542000AA852285EFC00F9F6FA0DFD68347550264
:10543000E9FF8347350283454502FD8BA301F50251
:10544000EFC04F9D6FA01FD5834735022302B502E1
:1054500093E707F8A301F50282808D8991C98947F6
:105460006395F50003C5E18A82801305F00F828001
:1054700083C7E18A13F7070119CF13F7070209CB96
:1054800093F707041305F00FE5F303C5A18A8280A3
:1054900003C5918A828003C5818A82809307F02F99
:1054A00063FBB70AFD7693870640AE97C207056790
:1054B000C1831307F7DF637FF702617793078720C4
:1054C000AE97C207C1839D4663EEF608EFA25FCA9E
:1054D000A167138797DF6384E50E6376B7021387AE
:1054E000C7DF6386E50C9387E7DF639EF50A83C712
:1054F000E1885DA8A16793878756BE95AE9683C75E
:1055000006403E858280938787DF639EF5083705D6
:1055100002401305C506EF106074B706002093869D
:10552000060790426301C5089385A1899821938756
:105530000124BA979C237D1693F7F70F19E21306FF
:105540000004050790C21377F70F9306F00363EF8B
:10555000E60A98A191A8B967938707B6BE959C21E2
:105560003E85828093070720AE97C207C1839306CA
:10557000F01F63F3F602A167AD8F916663E8D7066B
:105580008D67AE97C207C183096763E9E706BD6708
:1055900063F6F5048147B5B793878101BE952E97D1
:1055A00083470720B9BF81473E856FA0BFBE1387E1
:1055B000C18834231C2393F6F6FD34A3F5B73705D1
:1055C00002401305C506EF106069B707002003A766
:1055D00007079D47E31AE5FC9547F9B7A967938745
:1055E0000736BE95C577BE959C2121BFB717002011
:1055F000938707AFBE952E971C2321B7AD6793877E
:105600000736BE95CD77BE959C21E5BD238005006C
:1056100061BF617793078720AE97C207C1839D461C
:1056200063E0F602A1671387E7DF638FE504138762
:10563000F7DF638EE504938787DF6380F50482805C
:1056400093070720AE97C207C1839306F01F63E953
:10565000F60093878101BE952E972300C720828094
:10566000A167AD8F9166E3FCD7FCB7170020938745
:1056700007AFBE95BA9590A18280EFA27FAF328529
:10568000EF2000076FA01FB12387C1888280931786
:105690008601E187E3C507FA9357160093F6770072
:1056A0001387C1888547058AB397D700342311E64D
:1056B00093C7F7FFF58F3CA38280D58F3CA38280F0
:1056C000EFA21FAB8D899387C18A3387B70010A3E0
:1056D0000947638BE5020D476396E50213178601C0
:1056E000618763410702135716001D8B8545058AA4
:1056F000B396E500A82315E693C6F6FFE98EB4A39A
:105700006306B7006FA01FA9098A05E2371501409B
:10571000014693050020130505C0EF1020656FA01A
:105720007FA7C98EB4A3E31FB7FC37150140054618
:1057300093050020130505C0EF1040636FA09FA5DF
:10574000EFA27FA109655D7185451305458002D6ED
:1057500002D802DA02DC02CA02CC231E010002D007
:1057600002D202D402DE82C082C282C423160104A5
:1057700002C602C8EF10E07E371401408567614918
:105780008D440C1013050480938707802310F102C9
:105790004AD426D2EF10004D0C1013050480930755
:1057A00000082310F1024AD426D2EF10A04B373460
:1057B0000140856785494C08130504C09387A7BE3F
:1057C0004ECA3ECCC164EF10F004938404076C1001
:1057D000130504C09307100E26D62319F102231ACD
:1057E0000102EF1010169307201C6C10130504C063
:1057F0002319F10226D6231A0102EF10B00913056E
:1058000004C08545EF10B01D130504C08145EF109D
:10581000B021130504C08145EF10F021130504C029
:105820008545EF10B01E130504C08545EF10901993
:10583000B7C704013EDEB7070200BEC0B7070002CB
:105840006C18BEC2373501409D472316F104CAC407
:10585000EF10E0740546894537350140EF10407A76
:10586000854537350140EF10E0779307B022680097
:105870007C864EC823070100EF1060510546A14504
:10588000130504C0EF10501713051002EF10F0417C
:10589000AA841384C1891305100204C0EF10F040DC
:1058A00048C0238004022300050261616FA0FF8DC0
:1058B000EFA27F8A79712A84AE89054585453289B0
:1058C000B68402C202C402C602C802CA02CC02CE18
:1058D00002D002D202D402D6EF10C0662285EF10A9
:1058E0008027C1473EC6930700084C003ECC228566
:1058F0008D674EC24AC426C83ED402CA02CE02D028
:1059000002D202D6EF10203045616FA01F8801112E
:1059100026CCB734014022CEA145138504C01384A0
:1059200081894ACA4EC852C656C4EF1090121E2032
:105930000D478507C207C1831EA01E20630AF7001A
:105940001E2011476306F7001E201547631AF71043
:10595000856537350140938595B0130505C0EF1077
:10596000F00E1E20130770026377F7001E20130746
:10597000700E6375F71E0547A38BE1881E20130781
:1059800060026377F7001E201307600E6371F70E45
:105990001387518A1E209306601063F4F6002310CB
:1059A0000400138481215C48938401899CC01823DE
:1059B00094401377F70F41C72547958F9389418A04
:1059C000894A254A637EF70403C781F7894763FC48
:1059D000E700138781F714330D465C336385C612E5
:1059E0002546638BC61C7244E2445249C249324A7E
:1059F000A24A05617300203083C70900850793F729
:105A0000F70F2380F90083C7090063E3FA021385C7
:105A10008121EFF05F9E98405C48998FE366FAFA27
:105A20008347340293F70702E1FB23800900C5B7DF
:105A30009305F00F13858121EFF01FA1C9BF130754
:105A4000D006958FE362F7F89309D006138581217C
:105A5000EFF07F9A98405C48998FE3F9F9FEADB773
:105A60009305100E138504C0EF10407EDDBD1A2093
:105A70001E203D46930697FD938797FD13D7F64169
:105A800093D5F7411D8BF58136970D87AE979D8B8A
:105A90009376F70F8D8F636CD60E1377F70F25680B
:105AA0001315570093F5F70F01471386C189138328
:105AB000C1889388810113080836130E00028346BB
:105AC0002300B307E500C69793FE16009C2363846A
:105AD0000E00938707108E07C297AE9783CE0700FC
